{
    "contractName": "Election",
    "abi": [
        {
            "inputs": [],
            "stateMutability": "nonpayable",
            "type": "constructor"
        },
        {
            "inputs": [
                {
                    "internalType": "uint256",
                    "name": "",
                    "type": "uint256"
                }
            ],
            "name": "candidates",
            "outputs": [
                {
                    "internalType": "uint256",
                    "name": "id",
                    "type": "uint256"
                },
                {
                    "internalType": "string",
                    "name": "name",
                    "type": "string"
                },
                {
                    "internalType": "uint256",
                    "name": "voteCount",
                    "type": "uint256"
                }
            ],
            "stateMutability": "view",
            "type": "function"
        },
        {
            "inputs": [],
            "name": "candidatesCount",
            "outputs": [
                {
                    "internalType": "uint256",
                    "name": "",
                    "type": "uint256"
                }
            ],
            "stateMutability": "view",
            "type": "function"
        }
    ],
    "bytecode": "608060405234801561001057600080fd5b5060408051808201909152600b81526a43616e646964617465203160a81b602082015261003c9061006c565b60408051808201909152600b81526a21b0b73234b230ba32901960a91b60208201526100679061006c565b610259565b6001805490600061007c836100d4565b909155505060408051606081018252600180548083526020808401868152600085870181905292835290829052939020825181559251919291908201906100c3908261019a565b506040820151816002015590505050565b6000600182016100f457634e487b7160e01b600052601160045260246000fd5b5060010190565b634e487b7160e01b600052604160045260246000fd5b600181811c9082168061012557607f821691505b60208210810361014557634e487b7160e01b600052602260045260246000fd5b50919050565b601f82111561019557600081815260208120601f850160051c810160208610156101725750805b601f850160051c820191505b818110156101915782815560010161017e565b5050505b505050565b81516001600160401b038111156101b3576101b36100fb565b6101c7816101c18454610111565b8461014b565b602080601f8311600181146101fc57600084156101e45750858301515b600019600386901b1c1916600185901b178555610191565b600085815260208120601f198616915b8281101561022b5788860151825594840194600190910190840161020c565b50858210156102495787850151600019600388901b60f8161c191681555b5050505050600190811b01905550565b61020a806102686000396000f3fe608060405234801561001057600080fd5b50600436106100365760003560e01c80632d35a8a21461003b5780633477ee2e14610057575b600080fd5b61004460015481565b6040519081526020015b60405180910390f35b61006a610065366004610124565b610079565b60405161004e9392919061013d565b6000602081905290815260409020805460018201805491929161009b9061019a565b80601f01602080910402602001604051908101604052809291908181526020018280546100c79061019a565b80156101145780601f106100e957610100808354040283529160200191610114565b820191906000526020600020905b8154815290600101906020018083116100f757829003601f168201915b5050505050908060020154905083565b60006020828403121561013657600080fd5b5035919050565b83815260006020606081840152845180606085015260005b8181101561017157868101830151858201608001528201610155565b506000608082860101526080601f19601f83011685010192505050826040830152949350505050565b600181811c908216806101ae57607f821691505b6020821081036101ce57634e487b7160e01b600052602260045260246000fd5b5091905056fea2646970667358221220420c5d104712d84a9eeac475d1f106dc5b5c82c5118c3573eca397f655f12f6164736f6c63430008110033",
    "sourcePath": "c:/Major_Project/contracts/Election.sol",
    "compiler": {
        "name": "solc",
        "version": "0.8.17+commit.8df45f5f"
    },
    "functionHashes": {
        "candidates(uint256)": "3477ee2e",
        "candidatesCount()": "2d35a8a2"
    },
    "gasEstimates": {
        "creation": {
            "codeDepositCost": "104400",
            "executionCost": "infinite",
            "totalCost": "infinite"
        },
        "external": {
            "candidates(uint256)": "infinite",
            "candidatesCount()": "2262"
        },
        "internal": {
            "addCandidate(string memory)": "infinite"
        }
    }
}